{
  "contractName": "yVault",
  "abi": [
    {
      "inputs": [
        {
          "internalType": "address",
          "name": "_token",
          "type": "address"
        },
        {
          "internalType": "address",
          "name": "_controller",
          "type": "address"
        },
        {
          "internalType": "address",
          "name": "_yfiiaddress",
          "type": "address"
        }
      ],
      "payable": false,
      "stateMutability": "nonpayable",
      "type": "constructor"
    },
    {
      "anonymous": false,
      "inputs": [
        {
          "indexed": true,
          "internalType": "address",
          "name": "owner",
          "type": "address"
        },
        {
          "indexed": true,
          "internalType": "address",
          "name": "spender",
          "type": "address"
        },
        {
          "indexed": false,
          "internalType": "uint256",
          "name": "value",
          "type": "uint256"
        }
      ],
      "name": "Approval",
      "type": "event"
    },
    {
      "anonymous": false,
      "inputs": [
        {
          "indexed": true,
          "internalType": "address",
          "name": "from",
          "type": "address"
        },
        {
          "indexed": true,
          "internalType": "address",
          "name": "to",
          "type": "address"
        },
        {
          "indexed": false,
          "internalType": "uint256",
          "name": "value",
          "type": "uint256"
        }
      ],
      "name": "Transfer",
      "type": "event"
    },
    {
      "constant": true,
      "inputs": [],
      "name": "Yfiitoken",
      "outputs": [
        {
          "internalType": "contract IERC20",
          "name": "",
          "type": "address"
        }
      ],
      "payable": false,
      "stateMutability": "view",
      "type": "function"
    },
    {
      "constant": true,
      "inputs": [
        {
          "internalType": "address",
          "name": "owner",
          "type": "address"
        },
        {
          "internalType": "address",
          "name": "spender",
          "type": "address"
        }
      ],
      "name": "allowance",
      "outputs": [
        {
          "internalType": "uint256",
          "name": "",
          "type": "uint256"
        }
      ],
      "payable": false,
      "stateMutability": "view",
      "type": "function"
    },
    {
      "constant": false,
      "inputs": [
        {
          "internalType": "address",
          "name": "spender",
          "type": "address"
        },
        {
          "internalType": "uint256",
          "name": "amount",
          "type": "uint256"
        }
      ],
      "name": "approve",
      "outputs": [
        {
          "internalType": "bool",
          "name": "",
          "type": "bool"
        }
      ],
      "payable": false,
      "stateMutability": "nonpayable",
      "type": "function"
    },
    {
      "constant": true,
      "inputs": [
        {
          "internalType": "address",
          "name": "account",
          "type": "address"
        }
      ],
      "name": "balanceOf",
      "outputs": [
        {
          "internalType": "uint256",
          "name": "",
          "type": "uint256"
        }
      ],
      "payable": false,
      "stateMutability": "view",
      "type": "function"
    },
    {
      "constant": true,
      "inputs": [],
      "name": "controller",
      "outputs": [
        {
          "internalType": "address",
          "name": "",
          "type": "address"
        }
      ],
      "payable": false,
      "stateMutability": "view",
      "type": "function"
    },
    {
      "constant": false,
      "inputs": [
        {
          "internalType": "address",
          "name": "spender",
          "type": "address"
        },
        {
          "internalType": "uint256",
          "name": "subtractedValue",
          "type": "uint256"
        }
      ],
      "name": "decreaseAllowance",
      "outputs": [
        {
          "internalType": "bool",
          "name": "",
          "type": "bool"
        }
      ],
      "payable": false,
      "stateMutability": "nonpayable",
      "type": "function"
    },
    {
      "constant": true,
      "inputs": [
        {
          "internalType": "uint256",
          "name": "",
          "type": "uint256"
        }
      ],
      "name": "global_",
      "outputs": [
        {
          "internalType": "uint256",
          "name": "total_stake",
          "type": "uint256"
        },
        {
          "internalType": "uint256",
          "name": "total_out",
          "type": "uint256"
        },
        {
          "internalType": "uint256",
          "name": "earnings_per_share",
          "type": "uint256"
        }
      ],
      "payable": false,
      "stateMutability": "view",
      "type": "function"
    },
    {
      "constant": true,
      "inputs": [],
      "name": "governance",
      "outputs": [
        {
          "internalType": "address",
          "name": "",
          "type": "address"
        }
      ],
      "payable": false,
      "stateMutability": "view",
      "type": "function"
    },
    {
      "constant": false,
      "inputs": [
        {
          "internalType": "address",
          "name": "spender",
          "type": "address"
        },
        {
          "internalType": "uint256",
          "name": "addedValue",
          "type": "uint256"
        }
      ],
      "name": "increaseAllowance",
      "outputs": [
        {
          "internalType": "bool",
          "name": "",
          "type": "bool"
        }
      ],
      "payable": false,
      "stateMutability": "nonpayable",
      "type": "function"
    },
    {
      "constant": true,
      "inputs": [],
      "name": "max",
      "outputs": [
        {
          "internalType": "uint256",
          "name": "",
          "type": "uint256"
        }
      ],
      "payable": false,
      "stateMutability": "view",
      "type": "function"
    },
    {
      "constant": true,
      "inputs": [],
      "name": "min",
      "outputs": [
        {
          "internalType": "uint256",
          "name": "",
          "type": "uint256"
        }
      ],
      "payable": false,
      "stateMutability": "view",
      "type": "function"
    },
    {
      "constant": true,
      "inputs": [
        {
          "internalType": "address",
          "name": "",
          "type": "address"
        }
      ],
      "name": "plyr_",
      "outputs": [
        {
          "internalType": "uint256",
          "name": "stake",
          "type": "uint256"
        },
        {
          "internalType": "uint256",
          "name": "payout",
          "type": "uint256"
        },
        {
          "internalType": "uint256",
          "name": "total_out",
          "type": "uint256"
        }
      ],
      "payable": false,
      "stateMutability": "view",
      "type": "function"
    },
    {
      "constant": true,
      "inputs": [],
      "name": "token",
      "outputs": [
        {
          "internalType": "contract IERC20",
          "name": "",
          "type": "address"
        }
      ],
      "payable": false,
      "stateMutability": "view",
      "type": "function"
    },
    {
      "constant": true,
      "inputs": [],
      "name": "totalSupply",
      "outputs": [
        {
          "internalType": "uint256",
          "name": "",
          "type": "uint256"
        }
      ],
      "payable": false,
      "stateMutability": "view",
      "type": "function"
    },
    {
      "constant": false,
      "inputs": [
        {
          "internalType": "address",
          "name": "recipient",
          "type": "address"
        },
        {
          "internalType": "uint256",
          "name": "amount",
          "type": "uint256"
        }
      ],
      "name": "transfer",
      "outputs": [
        {
          "internalType": "bool",
          "name": "",
          "type": "bool"
        }
      ],
      "payable": false,
      "stateMutability": "nonpayable",
      "type": "function"
    },
    {
      "constant": false,
      "inputs": [
        {
          "internalType": "address",
          "name": "sender",
          "type": "address"
        },
        {
          "internalType": "address",
          "name": "recipient",
          "type": "address"
        },
        {
          "internalType": "uint256",
          "name": "amount",
          "type": "uint256"
        }
      ],
      "name": "transferFrom",
      "outputs": [
        {
          "internalType": "bool",
          "name": "",
          "type": "bool"
        }
      ],
      "payable": false,
      "stateMutability": "nonpayable",
      "type": "function"
    },
    {
      "constant": true,
      "inputs": [],
      "name": "balance",
      "outputs": [
        {
          "internalType": "uint256",
          "name": "",
          "type": "uint256"
        }
      ],
      "payable": false,
      "stateMutability": "view",
      "type": "function"
    },
    {
      "constant": false,
      "inputs": [
        {
          "internalType": "uint256",
          "name": "_min",
          "type": "uint256"
        }
      ],
      "name": "setMin",
      "outputs": [],
      "payable": false,
      "stateMutability": "nonpayable",
      "type": "function"
    },
    {
      "constant": false,
      "inputs": [
        {
          "internalType": "address",
          "name": "_governance",
          "type": "address"
        }
      ],
      "name": "setGovernance",
      "outputs": [],
      "payable": false,
      "stateMutability": "nonpayable",
      "type": "function"
    },
    {
      "constant": false,
      "inputs": [
        {
          "internalType": "address",
          "name": "_controller",
          "type": "address"
        }
      ],
      "name": "setController",
      "outputs": [],
      "payable": false,
      "stateMutability": "nonpayable",
      "type": "function"
    },
    {
      "constant": true,
      "inputs": [],
      "name": "available",
      "outputs": [
        {
          "internalType": "uint256",
          "name": "",
          "type": "uint256"
        }
      ],
      "payable": false,
      "stateMutability": "view",
      "type": "function"
    },
    {
      "constant": false,
      "inputs": [],
      "name": "earn",
      "outputs": [],
      "payable": false,
      "stateMutability": "nonpayable",
      "type": "function"
    },
    {
      "constant": false,
      "inputs": [
        {
          "internalType": "uint256",
          "name": "amount",
          "type": "uint256"
        }
      ],
      "name": "deposit",
      "outputs": [],
      "payable": false,
      "stateMutability": "nonpayable",
      "type": "function"
    },
    {
      "constant": false,
      "inputs": [
        {
          "internalType": "uint256",
          "name": "amount",
          "type": "uint256"
        }
      ],
      "name": "withdraw",
      "outputs": [],
      "payable": false,
      "stateMutability": "nonpayable",
      "type": "function"
    },
    {
      "constant": false,
      "inputs": [
        {
          "internalType": "uint256",
          "name": "amount",
          "type": "uint256"
        }
      ],
      "name": "make_profit",
      "outputs": [],
      "payable": false,
      "stateMutability": "nonpayable",
      "type": "function"
    },
    {
      "constant": true,
      "inputs": [
        {
          "internalType": "address",
          "name": "user",
          "type": "address"
        }
      ],
      "name": "cal_out",
      "outputs": [
        {
          "internalType": "uint256",
          "name": "",
          "type": "uint256"
        }
      ],
      "payable": false,
      "stateMutability": "view",
      "type": "function"
    },
    {
      "constant": false,
      "inputs": [],
      "name": "claim",
      "outputs": [],
      "payable": false,
      "stateMutability": "nonpayable",
      "type": "function"
    }
  ],
  "bytecode": "0x608060405261251c60055534801561001657600080fd5b50604051611a9d380380611a9d8339818101604052606081101561003957600080fd5b5080516020820151604090920151600380546001600160a01b039384166001600160a01b03199182161790915560048054928416928216929092179091556006805482163317905560078054929093169116179055611a008061009d6000396000f3fe608060405234801561001057600080fd5b50600436106101a95760003560e01c80639caac4fc116100f9578063d20a31d811610097578063dd62ed3e11610071578063dd62ed3e14610485578063f77c4791146104b3578063f8897945146104bb578063fc0c546a146104c3576101a9565b8063d20a31d814610443578063d389800f14610460578063da4745b314610468576101a9565b8063ab033ea9116100d3578063ab033ea9146103b4578063b69ef8a8146103da578063b6b55f25146103e2578063c68b0cd4146103ff576101a9565b80639caac4fc14610354578063a457c2d71461035c578063a9059cbb14610388576101a9565b806348a0d754116101665780636ac5db19116101405780636ac5db19146102da57806370a08231146102e257806378ce591d1461030857806392eefe9b1461032e576101a9565b806348a0d754146102a65780634e71d92d146102ae5780635aa6e675146102b6576101a9565b8063095ea7b3146101ae57806318160ddd146101ee57806323b872dd146102085780632e1a7d4d1461023e578063395093511461025d57806345dc3dd814610289575b600080fd5b6101da600480360360408110156101c457600080fd5b506001600160a01b0381351690602001356104cb565b604080519115158252519081900360200190f35b6101f66104e9565b60408051918252519081900360200190f35b6101da6004803603606081101561021e57600080fd5b506001600160a01b038135811691602081013590911690604001356104ef565b61025b6004803603602081101561025457600080fd5b503561057c565b005b6101da6004803603604081101561027357600080fd5b506001600160a01b038135169060200135610875565b61025b6004803603602081101561029f57600080fd5b50356108c9565b6101f661091b565b61025b6109c1565b6102be610a6c565b604080516001600160a01b039092168252519081900360200190f35b6101f6610a7b565b6101f6600480360360208110156102f857600080fd5b50356001600160a01b0316610a81565b6101f66004803603602081101561031e57600080fd5b50356001600160a01b0316610aa0565b61025b6004803603602081101561034457600080fd5b50356001600160a01b0316610b4a565b6102be610bb9565b6101da6004803603604081101561037257600080fd5b506001600160a01b038135169060200135610bc8565b6101da6004803603604081101561039e57600080fd5b506001600160a01b038135169060200135610c36565b61025b600480360360208110156103ca57600080fd5b50356001600160a01b0316610c4a565b6101f6610cb9565b61025b600480360360208110156103f857600080fd5b5035610dbc565b6104256004803603602081101561041557600080fd5b50356001600160a01b0316610ee6565b60408051938452602084019290925282820152519081900360600190f35b6104256004803603602081101561045957600080fd5b5035610f07565b61025b610f28565b61025b6004803603602081101561047e57600080fd5b5035610fcb565b6101f66004803603604081101561049b57600080fd5b506001600160a01b03813581169160200135166110c4565b6102be6110ef565b6101f66110fe565b6102be611104565b60006104df6104d8611113565b8484611117565b5060015b92915050565b60025490565b60006104fc848484611203565b61057284610508611113565b61056d856040518060600160405280602881526020016118ec602891396001600160a01b038a16600090815260016020526040812090610546611113565b6001600160a01b03168152602081019190915260400160002054919063ffffffff61135f16565b611117565b5060019392505050565b6105846109c1565b336000908152600860205260409020548110156105d3576040805162461bcd60e51b81526020600482015260086024820152672162616c616e636560c01b604482015290519081900360640190fd5b600354604080516370a0823160e01b8152306004820152905183926000926001600160a01b03909116916370a0823191602480820192602092909190829003018186803b15801561062357600080fd5b505afa158015610637573d6000803e3d6000fd5b505050506040513d602081101561064d57600080fd5b505190508181101561078b57600061066b838363ffffffff6113f616565b6007546003546040805163f3fef3a360e01b81526001600160a01b03928316600482015260248101859052905193945091169163f3fef3a39160448082019260009290919082900301818387803b1580156106c557600080fd5b505af11580156106d9573d6000803e3d6000fd5b5050600354604080516370a0823160e01b81523060048201529051600094506001600160a01b0390921692506370a08231916024808301926020929190829003018186803b15801561072a57600080fd5b505afa15801561073e573d6000803e3d6000fd5b505050506040513d602081101561075457600080fd5b50519050600061076a828563ffffffff6113f616565b90508281101561078757610784848263ffffffff61143f16565b94505b5050505b600080526009602052600080516020611914833981519152546107d7906107b8908563ffffffff61149916565b336000908152600860205260409020600101549063ffffffff6113f616565b3360009081526008602052604090206001810191909155546107ff908463ffffffff6113f616565b3360009081526008602090815260408220929092558052600990526000805160206118638339815191525461083a908463ffffffff6113f616565b60008052600960205260008051602061186383398151915255600354610870906001600160a01b0316338463ffffffff6114f216565b505050565b60006104df610882611113565b8461056d8560016000610893611113565b6001600160a01b03908116825260208083019390935260409182016000908120918c16815292529020549063ffffffff61143f16565b6006546001600160a01b03163314610916576040805162461bcd60e51b815260206004820152600b60248201526a21676f7665726e616e636560a81b604482015290519081900360640190fd5b600555565b600554600354604080516370a0823160e01b815230600482015290516000936109bc93612710936109b0936001600160a01b03909216916370a0823191602480820192602092909190829003018186803b15801561097857600080fd5b505afa15801561098c573d6000803e3d6000fd5b505050506040513d60208110156109a257600080fd5b50519063ffffffff61149916565b9063ffffffff61154416565b905090565b60006109cc33610aa0565b3360009081526008602090815260408220549180526009905260008051602061191483398151915254919250610a08919063ffffffff61149916565b336000908152600860205260409020600181019190915560020154610a33908263ffffffff61143f16565b336000908152600860205260409020600201558015610a6957600454610a69906001600160a01b0316338363ffffffff6114f216565b50565b6006546001600160a01b031681565b61271081565b6001600160a01b0381166000908152602081905260409020545b919050565b6001600160a01b03811660009081526008602090815260408220548280526009909152600080516020611914833981519152548291610ae5919063ffffffff61149916565b6001600160a01b038416600090815260086020526040902060010154909150811015610b15576000915050610a9b565b6001600160a01b038316600090815260086020526040902060010154610b4290829063ffffffff6113f616565b915050610a9b565b6006546001600160a01b03163314610b97576040805162461bcd60e51b815260206004820152600b60248201526a21676f7665726e616e636560a81b604482015290519081900360640190fd5b600780546001600160a01b0319166001600160a01b0392909216919091179055565b6004546001600160a01b031681565b60006104df610bd5611113565b8461056d856040518060600160405280602581526020016119a76025913960016000610bff611113565b6001600160a01b03908116825260208083019390935260409182016000908120918d1681529252902054919063ffffffff61135f16565b60006104df610c43611113565b8484611203565b6006546001600160a01b03163314610c97576040805162461bcd60e51b815260206004820152600b60248201526a21676f7665726e616e636560a81b604482015290519081900360640190fd5b600680546001600160a01b0319166001600160a01b0392909216919091179055565b600754600354604080516370a0823160e01b81526001600160a01b03928316600482015290516000936109bc9316916370a08231916024808301926020929190829003018186803b158015610d0d57600080fd5b505afa158015610d21573d6000803e3d6000fd5b505050506040513d6020811015610d3757600080fd5b5051600354604080516370a0823160e01b815230600482015290516001600160a01b03909216916370a0823191602480820192602092909190829003018186803b158015610d8457600080fd5b505afa158015610d98573d6000803e3d6000fd5b505050506040513d6020811015610dae57600080fd5b50519063ffffffff61143f16565b600354610dda906001600160a01b031633308463ffffffff61158616565b33600090815260086020526040902054610dfa908263ffffffff61143f16565b33600090815260086020908152604082209290925580526009905260008051602061191483398151915254610e415733600090815260086020526040812060010155610ea1565b60008052600960205260008051602061191483398151915254610e8d90610e6e908363ffffffff61149916565b336000908152600860205260409020600101549063ffffffff61143f16565b336000908152600860205260409020600101555b60008052600960205260008051602061186383398151915254610eca908263ffffffff61143f16565b6000805260096020526000805160206118638339815191525550565b60086020526000908152604090208054600182015460029092015490919083565b60096020526000908152604090208054600182015460029092015490919083565b6000610f3261091b565b600754600354919250610f58916001600160a01b0390811691168363ffffffff6114f216565b6007546003546040805163b02bf4b960e01b81526001600160a01b039283166004820152602481018590529051919092169163b02bf4b991604480830192600092919082900301818387803b158015610fb057600080fd5b505af1158015610fc4573d6000803e3d6000fd5b5050505050565b600454610fe9906001600160a01b031633308463ffffffff61158616565b6000805260096020526000805160206118638339815191525461104b9061102690670de0b6b3a7640000906109b09081868463ffffffff61149916565b600080526009602052600080516020611914833981519152549063ffffffff61143f16565b600080526009602052600080516020611914833981519152557fec8156718a8372b1db44bb411437d0870f3e3790d4a08526d024ce1b0b668f6c54611096908263ffffffff61143f16565b6000805260096020527fec8156718a8372b1db44bb411437d0870f3e3790d4a08526d024ce1b0b668f6c5550565b6001600160a01b03918216600090815260016020908152604080832093909416825291909152205490565b6007546001600160a01b031681565b60055481565b6003546001600160a01b031681565b3390565b6001600160a01b03831661115c5760405162461bcd60e51b81526004018080602001828103825260248152602001806119596024913960400191505060405180910390fd5b6001600160a01b0382166111a15760405162461bcd60e51b81526004018080602001828103825260228152602001806118836022913960400191505060405180910390fd5b6001600160a01b03808416600081815260016020908152604080832094871680845294825291829020859055815185815291517f8c5be1e5ebec7d5bd14f71427d1e84f3dd0314c0f7b2291e5b200ac8c7c3b9259281900390910190a3505050565b6001600160a01b0383166112485760405162461bcd60e51b81526004018080602001828103825260258152602001806119346025913960400191505060405180910390fd5b6001600160a01b03821661128d5760405162461bcd60e51b81526004018080602001828103825260238152602001806118406023913960400191505060405180910390fd5b6112d0816040518060600160405280602681526020016118a5602691396001600160a01b038616600090815260208190526040902054919063ffffffff61135f16565b6001600160a01b038085166000908152602081905260408082209390935590841681522054611305908263ffffffff61143f16565b6001600160a01b038084166000818152602081815260409182902094909455805185815290519193928716927fddf252ad1be2c89b69c2b068fc378daa952ba7f163c4a11628f55a4df523b3ef92918290030190a3505050565b600081848411156113ee5760405162461bcd60e51b81526004018080602001828103825283818151815260200191508051906020019080838360005b838110156113b357818101518382015260200161139b565b50505050905090810190601f1680156113e05780820380516001836020036101000a031916815260200191505b509250505060405180910390fd5b505050900390565b600061143883836040518060400160405280601e81526020017f536166654d6174683a207375627472616374696f6e206f766572666c6f77000081525061135f565b9392505050565b600082820183811015611438576040805162461bcd60e51b815260206004820152601b60248201527f536166654d6174683a206164646974696f6e206f766572666c6f770000000000604482015290519081900360640190fd5b6000826114a8575060006104e3565b828202828482816114b557fe5b04146114385760405162461bcd60e51b81526004018080602001828103825260218152602001806118cb6021913960400191505060405180910390fd5b604080516001600160a01b038416602482015260448082018490528251808303909101815260649091019091526020810180516001600160e01b031663a9059cbb60e01b1790526108709084906115e6565b600061143883836040518060400160405280601a81526020017f536166654d6174683a206469766973696f6e206279207a65726f00000000000081525061179e565b604080516001600160a01b0385811660248301528416604482015260648082018490528251808303909101815260849091019091526020810180516001600160e01b03166323b872dd60e01b1790526115e09085906115e6565b50505050565b6115f8826001600160a01b0316611803565b611649576040805162461bcd60e51b815260206004820152601f60248201527f5361666545524332303a2063616c6c20746f206e6f6e2d636f6e747261637400604482015290519081900360640190fd5b60006060836001600160a01b0316836040518082805190602001908083835b602083106116875780518252601f199092019160209182019101611668565b6001836020036101000a0380198251168184511680821785525050505050509050019150506000604051808303816000865af19150503d80600081146116e9576040519150601f19603f3d011682016040523d82523d6000602084013e6116ee565b606091505b509150915081611745576040805162461bcd60e51b815260206004820181905260248201527f5361666545524332303a206c6f772d6c6576656c2063616c6c206661696c6564604482015290519081900360640190fd5b8051156115e05780806020019051602081101561176157600080fd5b50516115e05760405162461bcd60e51b815260040180806020018281038252602a81526020018061197d602a913960400191505060405180910390fd5b600081836117ed5760405162461bcd60e51b81526020600482018181528351602484015283519092839260449091019190850190808383600083156113b357818101518382015260200161139b565b5060008385816117f957fe5b0495945050505050565b6000813f7fc5d2460186f7233c927e7db2dcc703c0e500b653ca82273b7bfad8045d85a47081158015906118375750808214155b94935050505056fe45524332303a207472616e7366657220746f20746865207a65726f2061646472657373ec8156718a8372b1db44bb411437d0870f3e3790d4a08526d024ce1b0b668f6b45524332303a20617070726f766520746f20746865207a65726f206164647265737345524332303a207472616e7366657220616d6f756e7420657863656564732062616c616e6365536166654d6174683a206d756c7469706c69636174696f6e206f766572666c6f7745524332303a207472616e7366657220616d6f756e74206578636565647320616c6c6f77616e6365ec8156718a8372b1db44bb411437d0870f3e3790d4a08526d024ce1b0b668f6d45524332303a207472616e736665722066726f6d20746865207a65726f206164647265737345524332303a20617070726f76652066726f6d20746865207a65726f20616464726573735361666545524332303a204552433230206f7065726174696f6e20646964206e6f74207375636365656445524332303a2064656372656173656420616c6c6f77616e63652062656c6f77207a65726fa265627a7a7231582004deffaa117b5f652f0da9d84c94488fb5f7c87ee5eaf426202c8c19d4ce1cfb64736f6c63430005100032",
  "source": "/**\n *Submitted for verification at Etherscan.io on 2020-07-26\n*/\n\npragma solidity ^0.5.16;\n\ninterface IERC20 {\n    function totalSupply() external view returns (uint256);\n    function balanceOf(address account) external view returns (uint256);\n    function transfer(address recipient, uint256 amount) external returns (bool);\n    function allowance(address owner, address spender) external view returns (uint256);\n    function approve(address spender, uint256 amount) external returns (bool);\n    function transferFrom(address sender, address recipient, uint256 amount) external returns (bool);\n    event Transfer(address indexed from, address indexed to, uint256 value);\n    event Approval(address indexed owner, address indexed spender, uint256 value);\n}\n\ncontract Context {\n    constructor () internal { }\n    // solhint-disable-previous-line no-empty-blocks\n\n    function _msgSender() internal view returns (address payable) {\n        return msg.sender;\n    }\n\n    function _msgData() internal view returns (bytes memory) {\n        this; // silence state mutability warning without generating bytecode - see https://github.com/ethereum/solidity/issues/2691\n        return msg.data;\n    }\n}\n\ncontract Ownable is Context {\n    address private _owner;\n\n    event OwnershipTransferred(address indexed previousOwner, address indexed newOwner);\n    constructor () internal {\n        _owner = _msgSender();\n        emit OwnershipTransferred(address(0), _owner);\n    }\n    function owner() public view returns (address) {\n        return _owner;\n    }\n    modifier onlyOwner() {\n        require(isOwner(), \"Ownable: caller is not the owner\");\n        _;\n    }\n    function isOwner() public view returns (bool) {\n        return _msgSender() == _owner;\n    }\n    function renounceOwnership() public onlyOwner {\n        emit OwnershipTransferred(_owner, address(0));\n        _owner = address(0);\n    }\n    function transferOwnership(address newOwner) public onlyOwner {\n        _transferOwnership(newOwner);\n    }\n    function _transferOwnership(address newOwner) internal {\n        require(newOwner != address(0), \"Ownable: new owner is the zero address\");\n        emit OwnershipTransferred(_owner, newOwner);\n        _owner = newOwner;\n    }\n}\n\ncontract ERC20 is Context, IERC20 {\n    using SafeMath for uint256;\n\n    mapping (address => uint256) private _balances;\n\n    mapping (address => mapping (address => uint256)) private _allowances;\n\n    uint256 private _totalSupply;\n    function totalSupply() public view returns (uint256) {\n        return _totalSupply;\n    }\n    function balanceOf(address account) public view returns (uint256) {\n        return _balances[account];\n    }\n    function transfer(address recipient, uint256 amount) public returns (bool) {\n        _transfer(_msgSender(), recipient, amount);\n        return true;\n    }\n    function allowance(address owner, address spender) public view returns (uint256) {\n        return _allowances[owner][spender];\n    }\n    function approve(address spender, uint256 amount) public returns (bool) {\n        _approve(_msgSender(), spender, amount);\n        return true;\n    }\n    function transferFrom(address sender, address recipient, uint256 amount) public returns (bool) {\n        _transfer(sender, recipient, amount);\n        _approve(sender, _msgSender(), _allowances[sender][_msgSender()].sub(amount, \"ERC20: transfer amount exceeds allowance\"));\n        return true;\n    }\n    function increaseAllowance(address spender, uint256 addedValue) public returns (bool) {\n        _approve(_msgSender(), spender, _allowances[_msgSender()][spender].add(addedValue));\n        return true;\n    }\n    function decreaseAllowance(address spender, uint256 subtractedValue) public returns (bool) {\n        _approve(_msgSender(), spender, _allowances[_msgSender()][spender].sub(subtractedValue, \"ERC20: decreased allowance below zero\"));\n        return true;\n    }\n    function _transfer(address sender, address recipient, uint256 amount) internal {\n        require(sender != address(0), \"ERC20: transfer from the zero address\");\n        require(recipient != address(0), \"ERC20: transfer to the zero address\");\n\n        _balances[sender] = _balances[sender].sub(amount, \"ERC20: transfer amount exceeds balance\");\n        _balances[recipient] = _balances[recipient].add(amount);\n        emit Transfer(sender, recipient, amount);\n    }\n    function _mint(address account, uint256 amount) internal {\n        require(account != address(0), \"ERC20: mint to the zero address\");\n\n        _totalSupply = _totalSupply.add(amount);\n        _balances[account] = _balances[account].add(amount);\n        emit Transfer(address(0), account, amount);\n    }\n    function _burn(address account, uint256 amount) internal {\n        require(account != address(0), \"ERC20: burn from the zero address\");\n\n        _balances[account] = _balances[account].sub(amount, \"ERC20: burn amount exceeds balance\");\n        _totalSupply = _totalSupply.sub(amount);\n        emit Transfer(account, address(0), amount);\n    }\n    function _approve(address owner, address spender, uint256 amount) internal {\n        require(owner != address(0), \"ERC20: approve from the zero address\");\n        require(spender != address(0), \"ERC20: approve to the zero address\");\n\n        _allowances[owner][spender] = amount;\n        emit Approval(owner, spender, amount);\n    }\n    function _burnFrom(address account, uint256 amount) internal {\n        _burn(account, amount);\n        _approve(account, _msgSender(), _allowances[account][_msgSender()].sub(amount, \"ERC20: burn amount exceeds allowance\"));\n    }\n}\n\ncontract ERC20Detailed is IERC20 {\n    string private _name;\n    string private _symbol;\n    uint8 private _decimals;\n\n    constructor (string memory name, string memory symbol, uint8 decimals) public {\n        _name = name;\n        _symbol = symbol;\n        _decimals = decimals;\n    }\n    function name() public view returns (string memory) {\n        return _name;\n    }\n    function symbol() public view returns (string memory) {\n        return _symbol;\n    }\n    function decimals() public view returns (uint8) {\n        return _decimals;\n    }\n}\n\nlibrary SafeMath {\n    function add(uint256 a, uint256 b) internal pure returns (uint256) {\n        uint256 c = a + b;\n        require(c >= a, \"SafeMath: addition overflow\");\n\n        return c;\n    }\n    function sub(uint256 a, uint256 b) internal pure returns (uint256) {\n        return sub(a, b, \"SafeMath: subtraction overflow\");\n    }\n    function sub(uint256 a, uint256 b, string memory errorMessage) internal pure returns (uint256) {\n        require(b <= a, errorMessage);\n        uint256 c = a - b;\n\n        return c;\n    }\n    function mul(uint256 a, uint256 b) internal pure returns (uint256) {\n        if (a == 0) {\n            return 0;\n        }\n\n        uint256 c = a * b;\n        require(c / a == b, \"SafeMath: multiplication overflow\");\n\n        return c;\n    }\n    function div(uint256 a, uint256 b) internal pure returns (uint256) {\n        return div(a, b, \"SafeMath: division by zero\");\n    }\n    function div(uint256 a, uint256 b, string memory errorMessage) internal pure returns (uint256) {\n        // Solidity only automatically asserts when dividing by 0\n        require(b > 0, errorMessage);\n        uint256 c = a / b;\n\n        return c;\n    }\n    function mod(uint256 a, uint256 b) internal pure returns (uint256) {\n        return mod(a, b, \"SafeMath: modulo by zero\");\n    }\n    function mod(uint256 a, uint256 b, string memory errorMessage) internal pure returns (uint256) {\n        require(b != 0, errorMessage);\n        return a % b;\n    }\n}\n\nlibrary Address {\n    function isContract(address account) internal view returns (bool) {\n        bytes32 codehash;\n        bytes32 accountHash = 0xc5d2460186f7233c927e7db2dcc703c0e500b653ca82273b7bfad8045d85a470;\n        // solhint-disable-next-line no-inline-assembly\n        assembly { codehash := extcodehash(account) }\n        return (codehash != 0x0 && codehash != accountHash);\n    }\n    function toPayable(address account) internal pure returns (address payable) {\n        return address(uint160(account));\n    }\n    function sendValue(address payable recipient, uint256 amount) internal {\n        require(address(this).balance >= amount, \"Address: insufficient balance\");\n\n        // solhint-disable-next-line avoid-call-value\n        (bool success, ) = recipient.call.value(amount)(\"\");\n        require(success, \"Address: unable to send value, recipient may have reverted\");\n    }\n}\n\nlibrary SafeERC20 {\n    using SafeMath for uint256;\n    using Address for address;\n\n    function safeTransfer(IERC20 token, address to, uint256 value) internal {\n        callOptionalReturn(token, abi.encodeWithSelector(token.transfer.selector, to, value));\n    }\n\n    function safeTransferFrom(IERC20 token, address from, address to, uint256 value) internal {\n        callOptionalReturn(token, abi.encodeWithSelector(token.transferFrom.selector, from, to, value));\n    }\n\n    function safeApprove(IERC20 token, address spender, uint256 value) internal {\n        require((value == 0) || (token.allowance(address(this), spender) == 0),\n            \"SafeERC20: approve from non-zero to non-zero allowance\"\n        );\n        callOptionalReturn(token, abi.encodeWithSelector(token.approve.selector, spender, value));\n    }\n\n    function safeIncreaseAllowance(IERC20 token, address spender, uint256 value) internal {\n        uint256 newAllowance = token.allowance(address(this), spender).add(value);\n        callOptionalReturn(token, abi.encodeWithSelector(token.approve.selector, spender, newAllowance));\n    }\n\n    function safeDecreaseAllowance(IERC20 token, address spender, uint256 value) internal {\n        uint256 newAllowance = token.allowance(address(this), spender).sub(value, \"SafeERC20: decreased allowance below zero\");\n        callOptionalReturn(token, abi.encodeWithSelector(token.approve.selector, spender, newAllowance));\n    }\n    function callOptionalReturn(IERC20 token, bytes memory data) private {\n        require(address(token).isContract(), \"SafeERC20: call to non-contract\");\n\n        // solhint-disable-next-line avoid-low-level-calls\n        (bool success, bytes memory returndata) = address(token).call(data);\n        require(success, \"SafeERC20: low-level call failed\");\n\n        if (returndata.length > 0) { // Return data is optional\n            // solhint-disable-next-line max-line-length\n            require(abi.decode(returndata, (bool)), \"SafeERC20: ERC20 operation did not succeed\");\n        }\n    }\n}\n\ninterface Controller {\n    function withdraw(address, uint) external;\n    function balanceOf(address) external view returns (uint);\n    function earn(address, uint) external;\n}\n\ninterface IFreeFromUpTo {\n    function freeFromUpTo(address from, uint256 value) external returns (uint256 freed);\n}\ncontract yVault is ERC20 {\n  using SafeERC20 for IERC20;\n  using Address for address;\n  using SafeMath for uint256;\n\n  IERC20 public token;\n  IERC20 public Yfiitoken;\n  \n  uint public min = 9500;\n  uint public constant max = 10000;\n  \n  address public governance;\n  address public controller;\n\n    struct Player {\n        uint256 stake; // \n        uint256 payout; //\n        uint256 total_out; // \n    }\n    mapping(address => Player) public plyr_; // (player => data) player data\n\n    struct Global {\n        uint256 total_stake; // \n        uint256 total_out; //  \n        uint256 earnings_per_share; // \n    }\n    mapping(uint256 => Global) public global_; // (global => data) global data\n\n//   IFreeFromUpTo public constant chi = IFreeFromUpTo(0x0000000000004946c0e9F43F4Dee607b0eF1fA1c);\n\n//   modifier discountCHI {\n//     uint256 gasStart = gasleft();\n//     _;\n//     uint256 gasSpent = 21000 + gasStart - gasleft() + 16 * msg.data.length;\n//     chi.freeFromUpTo(msg.sender, (gasSpent + 14154) / 41130);\n//     }\n\n\n  constructor (address _token, address _controller,address _yfiiaddress) public {\n      token = IERC20(_token);\n      Yfiitoken = IERC20(_yfiiaddress);\n      governance = msg.sender;\n      controller = _controller;\n  }\n  \n  function balance() public view returns (uint) {\n      return token.balanceOf(address(this))\n             .add(Controller(controller).balanceOf(address(token)));\n  }\n  \n  function setMin(uint _min) external {\n      require(msg.sender == governance, \"!governance\");\n      min = _min;\n  }\n  \n  function setGovernance(address _governance) public {\n      require(msg.sender == governance, \"!governance\");\n      governance = _governance;\n  }\n  \n  function setController(address _controller) public {\n      require(msg.sender == governance, \"!governance\");\n      controller = _controller;\n  }\n  \n  // Custom logic in here for how much the vault allows to be borrowed\n  // Sets minimum required on-hand to keep small withdrawals cheap\n  function available() public view returns (uint) {\n      return token.balanceOf(address(this)).mul(min).div(max);\n  }\n  \n  function earn() public {\n      uint _bal = available();\n      token.safeTransfer(controller, _bal);\n      Controller(controller).earn(address(token), _bal);\n  }\n\n  function deposit(uint amount) external {\n      token.safeTransferFrom(msg.sender, address(this), amount);\n      plyr_[msg.sender].stake = plyr_[msg.sender].stake.add(amount);\n        if (global_[0].earnings_per_share == 0) {\n            plyr_[msg.sender].payout = 0;\n        } else {\n            plyr_[msg.sender].payout = plyr_[msg.sender].payout.add(\n                global_[0].earnings_per_share.mul(amount)\n            );\n        }\n        global_[0].total_stake = global_[0].total_stake.add(amount);\n\n      \n  }\n\n  // No rebalance implementation for lower fees and faster swaps\n  function withdraw(uint amount) external {\n      claim();//.\n      require(amount>=plyr_[msg.sender].stake,\"!balance\");\n      uint r = amount;\n\n      // Check balance\n      uint b = token.balanceOf(address(this));\n      if (b < r) { // ...\n          uint _withdraw = r.sub(b);\n          Controller(controller).withdraw(address(token), _withdraw);\n          uint _after = token.balanceOf(address(this));\n          uint _diff = _after.sub(b);\n          if (_diff < _withdraw) {\n              r = b.add(_diff);\n          }\n      }\n\n      plyr_[msg.sender].payout = plyr_[msg.sender].payout.sub(\n            global_[0].earnings_per_share.mul(amount)\n      );\n      plyr_[msg.sender].stake = plyr_[msg.sender].stake.sub(amount);\n      global_[0].total_stake = global_[0].total_stake.sub(amount);\n\n      token.safeTransfer(msg.sender, r);\n  }\n\n    function make_profit(uint256 amount) public { //yvault \n        Yfiitoken.safeTransferFrom(msg.sender, address(this), amount);\n        global_[0].earnings_per_share = global_[0].earnings_per_share.add(\n            amount.mul(1e18).div(global_[0].total_stake).div(1e18)\n        );\n        global_[0].total_out = global_[0].total_out.add(amount);\n    }\n    function cal_out(address user) public view returns (uint256) { \n        uint256 _cal = global_[0].earnings_per_share.mul(plyr_[user].stake);\n        if (_cal < plyr_[user].payout) {\n            return 0;\n        } else {\n            return _cal.sub(plyr_[user].payout);\n        }\n    }\n    function claim() public { //\n        uint256 out = cal_out(msg.sender);\n        plyr_[msg.sender].payout = global_[0].earnings_per_share.mul(plyr_[msg.sender].stake);\n        plyr_[msg.sender].total_out = plyr_[msg.sender].total_out.add(out);\n        if (out > 0) {\n            Yfiitoken.safeTransfer(msg.sender, out);\n        }\n    }\n\n}",
  "sourcePath": "/Users/gaojin/Documents/GitHub/yvault/contracts/yvault.sol",
  "compiler": {
    "name": "solc",
    "version": "0.5.16+commit.9c3226ce.Emscripten.clang"
  },
  "schemaVersion": "3.2.1",
  "updatedAt": "2020-08-04T06:02:29.242Z",
  "devdoc": {
    "methods": {}
  },
  "userdoc": {
    "methods": {}
  }
}